:020000040800F2
:1000000090C70120A5010008352700084D1B0008F6
:1000100031270008A50D0008675000080000000007
:100020000000000000000000000000004B45000838
:10003000D312000800000000C52700086146000830
:10004000BF010008BF010008BF010008BF01000890
:10005000BF010008BF010008BF010008BF01000880
:10006000BF010008BF010008BF010008BF01000870
:10007000BF010008BF010008BF010008A90F000868
:10008000BF010008BF010008BF010008BF01000850
:10009000BF010008BF010008BF010008BF01000840
:1000A000BF010008BF010008BF010008BF01000830
:1000B000BF010008414B0008D94B0008BF010008F0
:1000C000BF010008BF010008BF010008BF01000810
:1000D000BF010008614D0008BF010008BF01000812
:1000E000BF010008BF010008BF010008BF010008F0
:1000F000BF010008BF010008BF010008BF010008E0
:10010000BF010008092B0008BF010008BF0100085B
:10011000BF010008BF010008094C0008BF0100082A
:10012000BF010008BF010008BF010008BF010008AF
:10013000BF010008BF010008BF010008BF0100089F
:10014000BF010008BF010008BF010008BF0100088F
:10015000BF010008BF010008BF010008BF0100087F
:10016000BF010008BF010008BF010008BF0100086F
:10017000BF010008BF010008BF010008BF0100085F
:10018000BF010008BF010008DFF80CD000F048FCF8
:10019000004800479573010890C7012072B6704768
:1001A00062B670470648804706480047FEE7FEE70C
:1001B000FEE7FEE7FEE7FEE7FEE7FEE7FEE7FEE717
:1001C000A1460008890100082DE9F05F05460020DE
:1001D00092469B4688460646814640241BE02846B8
:1001E00041464746224600F034FB53465A46C01A61
:1001F000914110D311461846224600F01BFB2D1AE0
:1002000067EB01084F4622460120002100F012FB57
:1002100017EB00094E41201EA4F10104DFDC484623
:1002200031462A464346BDE8F09F2DE9F0410024BF
:10023000061B254671F1000605DA01240027D0EBE4
:10024000070067EB0101161E73F1000605DA0027AF
:10025000D2EB0702012567EB0303FFF7B5FF8646E4
:100260000E4617469C46AC4204D00025D0EB050E46
:1002700065EB010624B10020D2EB000760EB030C14
:10028000704631463A466346BDE8F08140EA0103D4
:100290009B0703D009E008C9121F08C0042AFAD23C
:1002A00003E011F8013B00F8013B521EF9D2704700
:1002B000D2B201E000F8012B491EFBD270470022A8
:1002C000F6E710B513460A4604461946FFF7F0FF55
:1002D000204610BD421E12F8013F002BFBD111F841
:1002E000013B02F8013B002BF9D1704710B50446E1
:1002F00004E00B7800F8013B03B1491C521EF8D210
:10030000204610BD10B5002200E0521C835C8C5CBE
:10031000A34201D1002BF8D1D8B2E1B2401A10BDEE
:10032000034611F8012B00F8012B002AF9D11846D9
:10033000704700000FB400B58DB010A909900B9064
:1003400000914FF0FF300A9000200C900548069075
:10035000054807906A4609A80F9900F09FFA0DB06A
:100360005DF814FBB9080008D70800082DE9FF5F05
:100370001D464FF0FF3BD5E9014691465F464FF0E1
:100380000008A9697F1C01988847296A8246884726
:100390000028F6D1BAF1FF3F0CD024F4C064002E3F
:1003A00019DD600614D5BAF12B0F09D0BAF12D0F63
:1003B0000ED103E0584604B0BDE8F09F44F48064D9
:1003C000A9697F1C01988847761E8246002E02DDAF
:1003D000BAF1300F03D0B9F1000F26D032E0A9698D
:1003E000761E44F400747F1C019888478246002ED4
:1003F00005DDBAF1780F06D0BAF1580F03D0B9F184
:10040000000F10D01EE0B9F1000F02D0B9F1100FAB
:1004100018D1A969761E24F400747F1C01988847BE
:100420008246102002E0082000E00A20814609E010
:1004300008FB0908A969761E44F400747F1C019822
:1004400088478246002E05DD4946504600F011FAE5
:100450000028EDDAE96901988847A00502D46FF019
:100460000100A8E7E00725D1600613D5600502D595
:10047000C8F1000000E0404629680A1D2A600968AA
:10048000220501D5087015E0220701D5088011E08A
:1004900008600FE02868011D29600068210502D569
:1004A00080F8008006E0210702D5A0F8008001E076
:1004B000C0F8008038467EE72DE9FF5FD2E901A74A
:1004C0004FF00008916999461446DDF838B0464669
:1004D00001988847054659EA0B0005D009E0A16953
:1004E000761C019888470546216A284688470028D7
:1004F000F5D1681C03D05FEACA7005D015E04FF053
:10050000FF3004B0BDE8F09F2068011D2160D0F8E5
:1005100000800AE05FEACA7001D108F8015BA169B6
:10052000761C7F1E019888470546002F1ADD681C3F
:1005300018D0B9F1000F0DD0E81705EBD0604211CB
:1005400020F01F0059F822102A1A01209040014281
:10055000E0D107E0BBF1000FDCD1216A28468847D3
:100560000028D7D0E16901988847BBF1000F07D177
:10057000002E05DD5FEACA7002D1002188F8001064
:10058000A068B84203DDBBF1000F03D017B16FF0D4
:100590000100B6E73046B4E72DE9FE4F81EA0304D7
:1005A00004F0004421F0004100944FF0000B23F0D0
:1005B000004350EA01045ED052EA03045BD0C3F367
:1005C0000A54C1F30A552C44A4F2F3340194A0FB5D
:1005D0000254C1F3130141F48011C3F3130343F434
:1005E000801301FB024400FB034E840A970A44EA8D
:1005F000815447EA8357A4FB076802958D0A05FBDF
:1006000007854FEA932C04FB0C542705029D4FEA03
:10061000065847EA1637B5EB08056EEB070C870E50
:10062000920E47EA811742EA8312A7FB0201B6EB5A
:100630000B0164EB00042B0D43EA0C335E1844EB12
:100640001C50DA465146E7FB0201C5F313044FEA9A
:100650000B3343EA14534FEA0432019C43EA060386
:10066000A4F10C040294009CCDE900B400F08AF9D6
:1006700003B0BDE8F08F00200146F9E72DE9F04D09
:1006800081EA030404F0004B21F0004514464FF0CA
:10069000000A23F0004150EA050220D054EA01028A
:1006A0001DD0C5F30A570246C5F31303C1F3130067
:1006B000C1F30A5640F4801543F48013A7EB0608F3
:1006C000101BD64608F2FD3873EB050002D308F183
:1006D000010801E092185B41B8F1000F03DA002035
:1006E0000146BDE8F08D00204FF480110646844697
:1006F0000EE0171B73EB050705D3121B63EB050315
:1007000006434CEA010C49084FEA300092185B415D
:1007100050EA0107EDD152EA030012D082EA040048
:1007200083EA0501084305D0101BAB4106D2012224
:10073000002306E000224FF0004302E06FF00102C8
:1007400053101AEB06004CEB085110EB0A0041EB7A
:100750000B01BDE8F04D00F006B90EB540F2334193
:1007600002910021CDE900110A460B4600F00AF97A
:1007700003B000BD0EB540F2334202920022CDE933
:100780000022134600F0FEF803B000BDC1F30A5288
:1007900010B5C1F3130140F2FF3341F480119A42C6
:1007A00001DA002010BD40F233439A42A2F23342F4
:1007B00003DC524200F04DF810BD904010BD01F036
:1007C000004330B421F0004150EA010206D00A0D86
:1007D000A2F56072C1F31301002A02DC30BC0020D4
:1007E0007047440F44EAC104C100E01830BC00EB7C
:1007F000C25000F081B8A0E8004FF0C040F804DB20
:1008000001B5AFF30080BDE8024001C10020704790
:1008100000F12C080C4658F8040DAFF3008058F88E
:10082000040D8546200008BF012038E9F00018E9D2
:10083000004F7047202A04DB203A00FA02F1002022
:1008400070479140C2F1200320FA03F3194390400E
:100850007047202A04DB203A21FA02F00021704779
:1008600021FA02F3D040C2F1200291400843194618
:1008700070473A2800D2303820F02002412A01D3B4
:10088000A2F13700884201D34FF0FF3070470000DB
:10089000026811441378016018467047D16004491A
:1008A00051610449116200211161114600F0D0B874
:1008B00091080008450A0008426842B1016811F831
:1008C000013B23B1521EC0E90012184670470121B6
:1008D000C160881E704742685AB1C368016843B955
:1008E00083688B4205D0491E521CC0E900120020CB
:1008F00070474FF0FF3070470029A8BF7047401C79
:10090000490008BF20F00100704710B4B0FA80FC25
:1009100000FA0CF050EA010404BF10BC704749B162
:10092000CCF1200421FA04F411FA0CF118BF0121D2
:1009300021430843A3EB0C01CB1D4FEA00614FEAB2
:10094000102042BF002010BC704700EBC350104481
:100950000029A4BF10BC7047401C490008BF20F00C
:10096000010010BC704710B5141E73F1000408DAC2
:10097000401C41F1000192185B411A4301D120F063
:10098000010010BD2DE9F04D92469B4611B1B1FA20
:1009900081F202E0B0FA80F220329046FFF74AFF7F
:1009A00004460F4640EA0A0041EA0B0153465A4604
:1009B000084313D0114653EA010019D0C8F1400290
:1009C0005046FFF746FF05460E46504659464246FA
:1009D000FFF730FF084305D0012004E020463946E8
:1009E000BDE8F08D0020054346EAE0762C4337430E
:1009F0000A986305E40AA0EB08000022FD0A44EA15
:100A000047540A3002D500200146E9E701051019D4
:100A10006941DDE9084500196941BDE8F04DA2E7EB
:100A2000064C074D06E0E06840F0010394E807003B
:100A300098471034AC42F6D3FFF7AAFBA42E020865
:100A4000C42E0208C0B24FF4F05100F097B9000074
:100A50002DE9F34F8BB04FF0000801F10C000C466C
:100A60004FF0010B46460DF1080A01906269012121
:100A700001989047051E2DD0252D2CD0216A88473E
:100A8000C0B16269012101989047216A8847002816
:100A9000F7D1411E62690198904700E0761CA16978
:100AA0000B988847216A88470028F7D1E1690B989D
:100AB0008847DBE7A1690B9888470746A84201D120
:100AC000761CD3E7E1690B9888477F1C02D1B8F107
:100AD000000F6FD046E1002762693D463946019814
:100AE00090472A2804D16269012101989047012585
:100AF000DFF884926269012101989047A0F13001EA
:100B00000A290AD24F45E5DC07EB870100EB4107D4
:100B1000303FDFD445F01005ECE7E90601D46FF073
:100B200000476C280AD04C2814D0682815D06A28B1
:100B30000DD074281CD07A281AD01DE062690121DA
:100B4000019890476C2802D045F0040514E045F068
:100B500002050DE045F020050AE0626901210198D7
:100B60009047682802D045F0080505E045F4006587
:100B70006269012101989047C4E9015765283DD079
:100B800019DC58287AD00CDC452837D004DC25281D
:100B900026D0412831D131E046282FD047282CD10A
:100BA0002CE05B2877D0612828D063287CD064288B
:100BB00023D15AE0D0E06F2848D008DC66281DD049
:100BC00067281BD0692821D06E2816D127E070280D
:100BD00045D0732868D0752847D078280DD14DE0CE
:100BE000A1690B988847054625283FF469AFE1695C
:100BF0000B9888476D1C3FF46AAFB3E023466A4602
:100C00006FF001000B99AFF300809EE045F04000CB
:100C10006060A80723464FF0000236D43EE0E807A4
:100C20007FF447AF2068011D21600068290501D5C8
:100C300006701BE7290701D5068017E7A90703D52A
:100C4000F117C0E9006111E706600FE745F04000C9
:100C50006060A80723464FF0080216D41EE040F655
:100C60000E0125EA0100606016E045F0400060607A
:100C7000A80723464FF00A0207D40FE045F04000D2
:100C80006060A80708D5234610226FF001000B9979
:100C9000AFF3008059E007E0234610226FF0010017
:100CA0000B99FFF763FB50E04FF000094F464B46AE
:100CB000632802D05B2806D040E0E80601D401207A
:100CC000A06001273AE062690121019890475E28FF
:100CD00005D14FF0010962694946019890472169A1
:100CE00039B900210A46534643F82120491C0829F6
:100CF000FADBB0B3216969B9C11700EBD1625311B6
:100D00000AEB830122F01F02821A01200B68904037
:100D100003430B6062690121019890475D28E8D187
:100D2000B9F1000F09D00020514651F82020D243DC
:100D300041F82020401C0828F7DB02AB2246009730
:100D40006FF001000B99FFF7B7FB00280CDA401C8D
:100D500008D1BBF1000F05D04FF0FF300DB0BDE85A
:100D6000F08FFFE74046F9E7E90701D108F10108F4
:100D700006444FF0000B79E6CCCCCC0C7F2801D98F
:100D8000002208E0064A02EB5002C007127800D1A8
:100D9000120902F00F020120904008407047000045
:100DA000EC1A020800BFFEE770B500254FF480344E
:100DB00004E0802001F094FE00B103E0201EA4F1C5
:100DC0000104F6D100BF0CB9032070BD40F2FF5002
:100DD00001F05CFE2846F8E770B5044605E01648C9
:100DE000056805F0450000B100E0F8E700BF042009
:100DF00001F076FE20B1042001F048FE032070BD12
:100E0000012001F06DFE20B1012001F03FFE012024
:100E1000F5E7094824380068A04201D01020EEE729
:100E200040F2FF5001F032FE0348203800680821EC
:100E30000840C0B2E3E70000342C014070B5002642
:100E40004FF4803505E01148046804F0450000B116
:100E500003E0281EA5F10105F5D100BF15B104F08E
:100E6000040028B10326042001F010FE304670BDB6
:100E7000012001F035FE18B10126012001F006FE27
:100E800040F2FF5001F002FE3046F0E7342C014002
:100E900010B505E00B48046804F0450000B100E01F
:100EA000F8E700BF042001F01BFE20B1042001F090
:100EB000EDFD032010BD40F2FF5001F0E7FD0020E2
:100EC000F8E70000342C01402DE9F04105460E46BC
:100ED0004FF0000805E02048076807F0450000B122
:100EE00000E0F8E700BF042001F0FAFD28B104207B
:100EF00001F0CCFD0320BDE8F081012001F0F0FD00
:100F000020B1012001F0C2FD0120F4E7124824388D
:100F10000068A84201D01020EDE740F2FF5001F038
:100F2000B5FD0D482038046804F4604018B9200C61
:100F300030804046DFE704F4005008B11320DAE7C0
:100F400004F4804008B11020D5E704F4004008B153
:100F50000F20D0E74046CEE7342C014070B5002684
:100F60004FF4803505E00F48046804F0450000B1F7
:100F700003E0281EA5F10105F5D100BF15B104F06D
:100F8000040028B10326042001F080FD304670BD26
:100F900004F0400018B10026402001F077FD3046F3
:100FA000F5E70000342C014010B50749074800F070
:100FB0000FF9012806D10449044800F00BF8044851
:100FC0000068804710BD0000208000207060024053
:100FD000AC0000200246094B9A4201D2084801E0C9
:100FE0000648103801F000531BB1064B0B40C3609C
:100FF00002E0044B0B408360704700001064024025
:10100000006002407D0F7D0F21B1026842F00102B5
:10101000026003E0026822F00102026070470000F3
:10102000016821F0010101600021016041608160DF
:10103000C1600161212141614A49884204D13D21B9
:10104000484A103A91608CE046491831884205D1EF
:101050004FF47461434A103A916082E04149303163
:10106000884205D14FF474113E4A103A916078E0FD
:101070003C494831884205D14FF07461394A103AF1
:1010800091606EE037496031884204D13649354A73
:10109000103AD16065E033497831884204D1334950
:1010A000304A103AD1605CE02E499031884204D138
:1010B0002F492C4A103AD16053E02A49A83188427E
:1010C00005D14FF03D51274A103AD16049E02949F6
:1010D000884204D13D21274A083A116041E0254960
:1010E0001831884205D14FF47461224A083A1160E0
:1010F00037E020493031884205D14FF474111D4A40
:10110000083A11602DE01B494831884205D14FF063
:101110007461184A083A116023E016496031884228
:1011200004D11149134A121F11601AE01149783194
:10113000884204D10D490F4A121F116011E00D4978
:101140009031884204D10A490A4A121F116008E00E
:101150000849A831884204D14FF03D51054A121F79
:1011600011607047106002403D000020400F0020D9
:1011700000003D201064024021B1026842F4802248
:10118000026003E0026822F480220260704722B10C
:10119000036843F40023036003E0036823F400239F
:1011A00003600161704721B1026842F020020260D1
:1011B00003E0026822F0200202607047014600202E
:1011C0000A6802F001020AB1012000E00020704725
:1011D00070B50246002000240025124EB24201D212
:1011E000114B01E00F4B103B104E0E4036B11E2646
:1011F00006EAD124166806EA040502E0566906F0FC
:10120000800501F000560EB15C6800E01C68084ED5
:10121000344004EA010616B10DB1012000E00020BF
:1012200070BD000010640240006002403C0F3C0FA3
:101230007D0F7D0F10B501F080034BB122B14369E2
:1012400043F08003436103E0436923F0800343617B
:1012500080290BD02AB1036801F01E0423430360E8
:1012600004E0036801F01E04A343036010BD000006
:1012700010B500220268134B1A40CC680B68234358
:101280004C6923438C692343CC6923430C6A234371
:101290004C6A23438C6A23434C6B23438C6B23435C
:1012A0001A430260426922F00702D1E90B3423435A
:1012B0001A4342610B6943604B6883608B68C3606B
:1012C00010BD00003F801CF00AB1016100E0C16068
:1012D0007047704710B50446214610A004F04CF842
:1012E000240300F035F900F0CDF800200D49086026
:1012F000202003F0B9F8C4F3074003F0B5F8C4F3B5
:10130000072003F0B1F8E0B203F0AEF8012006497F
:10131000C1F8B80200F0B6F810BD000066653A25C5
:10132000780D0A00B8824042008040421CB501217D
:10133000022001F049FA0121402001F045FA4FF462
:101340008040009001208DF8040000208DF80600F8
:1013500003208DF8050001208DF8070069460F482D
:1013600000F00EFB8020009069460D4800F008FB5D
:1013700080210B4800F06FFB01200A49086003F050
:1013800011F8002003F08CF800F042F806490880BC
:101390000846018805A003F0EFFF1CBD00040240D1
:1013A00000180240B882404234000020454E3235D9
:1013B0005158585F545950453D25580D0A000000BA
:1013C0002DE9F04106460C46174600200F490860FB
:1013D000032003F049F8C4F3074003F045F8C4F3D1
:1013E000072003F041F8E0B203F03EF8002505E0E5
:1013F000FF2003F039F87055681C85B2BD42F7DB59
:10140000012002490860BDE8F0810000B882404236
:1014100010B5002400200E490860902003F024F845
:10142000002003F021F8002003F01EF8002003F054
:101430001BF8FF2003F018F844EA0024FF2003F013
:1014400013F8044301200349C1F8B802204610BD37
:10145000B88240420080404210B500240020074975
:101460000860052003F000F8FF2002F0FDFF0446AD
:1014700001200349C1F8B802204610BDB88240429D
:101480000080404210B500BFFFF7E6FF00F001000A
:101490000028F9D110BD00002DE9F05F81460F460C
:1014A0001646DFF8A8B04FEA1738C7F30B0ACAF59B
:1014B0008054A64200DC344644E04FEA08314FF441
:1014C00080525846FFF77CFF002508E00AEB050034
:1014D0001BF80000FF2800D003E0681C85B2A5427D
:1014E000F4DB00BFA54216DA4046FFF7F3FE002505
:1014F00007E019F8050005EB0A010BF80100681C6C
:1015000085B2A542F5DB4FEA08314FF480525846C8
:1015100000F02EF804E022463946484600F028F84C
:10152000A64200D10FE008F101084FF0000AA144E3
:101530002744301B86B2B6F5805F02DD4FF480543D
:1015400000E03446B9E700BFBDE8F09FA0040020EA
:1015500010B5002004490860062002F085FF012034
:101560000249C1F8B80210BDB88240420080404232
:101570002DE9F04107460E461446F0B2C0F58075DD
:10158000AC4200DC254612E02A463146384600F0DF
:1015900013F8AC4200D10BE02F442E44601B84B200
:1015A000B4F5807F02DD4FF4807500E02546EBE75F
:1015B00000BFBDE8F08100002DE9F04106460C4671
:1015C0001746FFF7C5FF00200F490860022002F010
:1015D0004BFFC4F3074002F047FFC4F3072002F0BB
:1015E00043FFE0B202F040FF002504E0705D02F02E
:1015F0003BFF681C85B2BD42F8DB01200249086050
:10160000FFF740FFBDE8F081B882404210B50024EA
:101610000EE04FF40D71002016F05CFC184941F803
:101620002400084650F8240000B903E0601CC4B24E
:10163000042CEEDB00BF4FF41471002016F04AFCBE
:10164000104908604FF41471002016F043FC0E4955
:1016500008604FF40071002016F03CFC0B49086054
:10166000042C0AD10748006838B10748006820B147
:101670000846006808B1002010BD0120FCE700000A
:10168000B0BD0120DC000020E0000020EC000020C4
:1016900051B18200A2F1C042126842F001038200FF
:1016A000A2F1C042136009E08200A2F1C0421268B8
:1016B000034B1A408300A3F1C0431A607047000037
:1016C000FEFF0F0030B50021002200230468A400B3
:1016D000A4F1C0442168444C2140D0E901452C4389
:1016E000C5682C4305692C4345692C4385692C4307
:1016F000C5692C43056A2C43456A2C43856A2C43F3
:10170000C56A2C43056B2C4321430468A400A4F153
:10171000C04421608468082C0BD10468A400A4F1A3
:10172000C044246844F040050468A400A4F1C04407
:1017300025600468641CA400A4F1C044226802F07F
:101740004042446B2468456B6D6844EA0514456B60
:10175000AD6844EA0524456BAD8944EA0544456B10
:101760002D8A44EA0554456B2D7D44EA0564456B9A
:10177000AD692C4322430468641CA400A4F1C04456
:101780002260C46AB4F5804F24D10468A400A4F197
:10179000C044D4F8043103F04043846B2468856B63
:1017A0006D6844EA0514856BAD6844EA0524856BD1
:1017B0002D8A44EA0554856B2D7D44EA0564856BCA
:1017C000AD692C4323430468A400A4F1C044C4F8C9
:1017D000043107E06FF070450468A400A4F1C04430
:1017E000C4F8045130BD00008000F7FF2DE9FC4132
:1017F00007460D4600260024002000900190082096
:101800005B49086010204860402088600020C86064
:101810004FF480600861084601F0AEF91020FFF730
:10182000DBFA044614B12046BDE8FC81514800882B
:1018300000044F490860372048604020886000203D
:10184000C8604FF480600861084601F095F93720C0
:10185000FFF7C2FA04460CB12046E5E74FF0FF302F
:101860004549086008204860302088600220C86030
:101870000020086101204861084601F017F90020A6
:101880003B49086033204860402088600020C860E1
:101890004FF480600861084601F06EF93320FFF7CD
:1018A0009BFA04460CB12046BEE70CE04FF4001052
:1018B00001F016F938B1314800684DF82600761C61
:1018C000022E00D307E02D484C38006840F22A6110
:1018D00008400028EAD000BF082001F001F920B13B
:1018E000082001F0D3F804209EE7022001F0F8F868
:1018F00020B1022001F0CAF8022095E7202001F073
:10190000EFF820B1202001F0C1F806208CE74FF459
:10191000007001F0E5F828B14FF4007001F0B6F85E
:10192000072081E740F2FF5001F0B0F80098000670
:10193000009901F47F4140EA0120009901F47F0100
:1019400040EA1120009940EA1160686001980006A1
:10195000019901F47F4140EA0120019901F47F01DE
:1019600040EA1120019940EA1160286020465BE7B7
:10197000F8010020280000200C020020802C0140EB
:10198000F0B50A4600210023002400BF3DE00125F8
:1019900005FA01F3156805EA03049C4234D1056891
:1019A0004F000326BE40B543056015794E00B54093
:1019B0000668354305601579012D02D01579022D91
:1019C00016D185684F000326BE40B5438560557922
:1019D0004E00B540866835438560456801268E40D7
:1019E000B5434560456896798E40B6B2354345604B
:1019F000C5684F000326BE40B543C560D5794E008B
:101A0000B540C6683543C560491C1029BFD3F0BD39
:101A1000F0B5002300244D07ED0E02FA05F3CE10B9
:101A200000F1200555F826504E07F70E0F26BE4050
:101A3000B543CF1000F1200646F82750CE1000F134
:101A4000200555F8265045EA0304CE1000F1200584
:101A500045F82640F0BD0183704700002DE9F05F96
:101A60008246884614462046E21704EB5272D21092
:101A70002146E31704EB5373DB10A4EBC3030BB154
:101A8000012300E000231A44624302F0FF099AF8A0
:101A900000600AF1010082460578812E05DB402DA9
:101AA00003DBFF2D01D0FF2E0DD14FF0000B06E020
:101AB000002008F8010B0BF1010000F0FF0BCB45F3
:101AC000F6DBBDE8F09F7F2D03DAA5F14000C5B23B
:101AD00002E0A5F14100C5B2A6F18100C6B2BE2068
:101AE00010FB065000FB09F70C2C06D0102C0DD073
:101AF000182C14D0202C24D11AE01348D0F8090057
:101B0000C1194A464046FFF75BFC1AE00E48D0F880
:101B10001100C1194A464046FFF752FC11E00A483D
:101B2000D0F81900C1194A464046FFF749FC08E0C1
:101B30000548D0F82100C1194A464046FFF740FC4D
:101B400000BF00BF00BFBCE728BF012000BFFEE709
:101B50002DE9FF4104460F4615461E460121880324
:101B600000F052FE0121880300F05EFE00214FF4D8
:101B7000804000F059FEADF80070ADF80240ADF8BD
:101B800004600020ADF8060002200290ADF80C5071
:101B90006946074800F0BCF801220221044802F01F
:101BA0009FFC0121024800F0A7F8BDE8FF8100007A
:101BB0000038004070B50546002400260A20B5FB19
:101BC000F0F500BF09E004EB84001F4931F8100074
:101BD000A84200D103E0601CC4B20B2CF3D300BFB9
:101BE000002000F0C5FE0B2C01D1012070BD04EBDC
:101BF0008402154B03EB4202918804EB840203EB51
:101C00004202508800F0BAFE1048006840F0806040
:101C10000E49086000BF0D48006800F00060002811
:101C2000F9D004EB8400084901EB4000C68804EBBE
:101C3000840001EB4000008946EA002646F4007665
:101C400003490E800020D1E7CC070208003802408B
:101C50002038004070B590B004460E46154601216C
:101C6000480500F0B1FD2248FFF7DAF900BF20482F
:101C7000FFF7A4FA0028FAD100901E4801900294C0
:101C8000402003900495002005904FF4806006905A
:101C900040000790800008904011099040020A908F
:101CA00000200B900C900D900E9069461048FFF7A5
:101CB000DFFA002231460E48FFF769FA01210C488D
:101CC000FFF75AFA012210210948FFF7B3FA0F2053
:101CD0008DF83C0000208DF83D008DF83E0001207D
:101CE0008DF83F000FA800F027FD10B070BD000078
:101CF000706002400C38004021B1828B42F4806257
:101D0000828304E0828B4FF6FF331A408283704750
:101D10002DE9F04F0025022300244FF00109002295
:101D20000026002794469046B0F81CA04FF2400BC6
:101D30000AEA0B0AA0F81CA04FF0020AA0F820A0A3
:101D4000858BD1F808A0BAF1020F01D100BF82E063
:101D5000B1F804A0BAF1000F02D14FF0010901E07F
:101D60004FF00209DFF834A1DAF800A00AF4000A03
:101D7000BAF1000F09D0DFF824A1DAF800A02AF4A4
:101D8000000ADFF818B1CBF800A0DFF810A10AF1C3
:101D90007C0ADAF800A0CAF3881CDFF800A10AF177
:101DA0007C0ADAF800A0CAF30278DFF8F0A0AAF102
:101DB000040ADAF800A00AF03F07DFF8E0A0AAF171
:101DC000040ADAF800A00AF4800ABAF5800F08D1F4
:101DD000DFF8CCA0BAFBF7FA0AFB0CFABAFBF8F66C
:101DE00007E0DFF8C0A0BAFBF7FA0AFB0CFABAFB6F
:101DF000F8F6B1F806A0BAF5007F0ED14FEA162A20
:101E00000AEB8A0A4FEA4A0AD1F808B0BAFBFBFA91
:101E10000AF1050A1FFA8AF20FE04FEA491AB6FBE7
:101E2000FAFA0AEB8A0A4FEA4A0AD1F808B0BAFB72
:101E3000FBFA0AF1050A1FFA8AF24FF00A0AB2FB0E
:101E4000FAF202F00104A2EB040ACAF34F034FF6C0
:101E5000FF7A0AEA0424022B01DBFF2B01DD0223B7
:101E60000024B1F806A04AEA040A4AEA030AA0F8E4
:101E700020A0B1F804A0B1F80CB04AEA0B0AB1F8FE
:101E800002B04AEA0B0AB1F800B04AEA0B0A4AF477
:101E9000006A4AEA05058583BDE8F08F08380240EC
:101EA00000127A000024F40010B501210148FFF768
:101EB000ABF810BD7060024010B500210148FFF77B
:101EC000A3F810BD706002401CB50121022000F093
:101ED0007BFC4FF44070009001208DF8040000203E
:101EE0008DF8060003208DF8050001208DF807000D
:101EF00069460548FFF744FD01200449086004498C
:101F0000C1F8A4021CBD000000040240A0824042AF
:101F10000080404270B5044600F04AFD002014499C
:101F20000860002520E004F08000002804DD012086
:101F30000F49091D086003E000200D49091D0860D4
:101F40006006040E022007F0A9F901200849086084
:101F5000022007F0A3F900200649C1F8A0020220E0
:101F600007F09CF9681CC5B2082DDCDB70BD0000D1
:101F7000A08240420080404210B500F019FD0120CF
:101F8000094908600949C1F8A002052007F086F94F
:101F9000002005490860062007F080F90020034969
:101FA000C1F8A00210BD0000A4824042008040425F
:101FB00010B500F0FDFC0020094908600949C1F88E
:101FC000A402012006490860062007F067F90120F5
:101FD0000449C1F8A402062007F060F910BD000012
:101FE000A08240420080404210B5002400F0CEFCA8
:101FF00001200E49086007F051F901200C49C1F891
:10200000A00207F04BF907E0601CC4B2FA2C03DD14
:10201000FFF7CEFF012010BD04488038006800287B
:10202000F2D10249091F086000BFF4E7A4824042D0
:10203000008040421CB504460020019000902248D8
:1020400000880004214908600D2048604020886015
:102050000020C8604FF480600861084600F08CFDE5
:102060001B480068009002E0194800680090009842
:1020700000F045000028F7D0012000F031FD20B12C
:10208000012000F003FD01201CBD042000F028FD0C
:1020900020B1042000F0FAFC0320F5E70C482438B6
:1020A00000680D2801D01020EEE740F2FF5000F04C
:1020B000EDFC07482038006801900198C0F34320E8
:1020C00020700020E0E7000028000020F801002038
:1020D000342C01401CB50121112000F075FB0020BB
:1020E0008DF804001C20009001208DF8070069463F
:1020F0000748FFF745FC00208DF804000120009000
:1021000002208DF8070069460248FFF739FC1CBD24
:10211000001002400000024010B50446012C01D11D
:10212000224908702148007801282AD120480068F7
:1021300001280AD01F48006838B11E48001F0068F7
:1021400018B11C4808380068D8B90A2007F064F8AC
:1021500000201649087016480068012800D110BDFB
:102160001448006808B90220F9E71248001F006807
:1021700008B90320F3E70F4808380068A0B9042025
:10218000EDE70B48006878B90A48006801280BD1D0
:102190000848001F0068012806D106480838006872
:1021A000012801D1014908700020D8E7360000203D
:1021B000000240421002424270B506460F48408875
:1021C000401E83B20D480088401E82B2002108469E
:1021D00000F07EF800240CE0002504E0304600F01A
:1021E0006FFA681C85B205484088A842F6DC601C7E
:1021F00084B202480088A042EEDC70BD1A000020C4
:1022000010B50446134884715CB90821362000F0EB
:1022100047FA4FF4F0700F4948804FF4A0700880DF
:1022200016E02821362000F03BFAB62000F032FA02
:10223000002000F03FFA022000F03CFA3B2000F0C2
:1022400039FA4FF4A070034948804FF4F0700880C9
:1022500010BD00001A00002070B504460D46164659
:102260002B4622462946204600F032F8304600F040
:1022700027FA70BD2DE9F04304460D4616461F4669
:10228000DDF81C80B44201DCBD4201DDBDE8F08315
:102290003B4632462946204600F01AF8301B401CC7
:1022A00084B2781B401C85B20BE0A94602E0404690
:1022B00000F006FAB9F10000A9F101011FFA81F955
:1022C000F5D1201EA4F101018CB2EED100BFDDE7F3
:1022D00070B504460D462A2000F0DCF92646E117C9
:1022E00004EB1161C1F30F2000F0E4F9E11704EBF6
:1022F00011610912A4EB012188B200F0DBF9164646
:10230000D11702EB1161C1F30F2000F0D3F916468B
:10231000D11702EB11610912A2EB012188B200F082
:10232000C9F92B2000F0B6F92E46E91705EB11612B
:10233000C1F30F2000F0BEF9E91705EB1161091296
:10234000A5EB012188B200F0B5F91E46D91703EBC1
:102350001161C1F30F2000F0ADF91E46D91703EB50
:1023600011610912A3EB012188B200F0A3F92C201E
:1023700000F090F970BD00002DE9F84F80460E4640
:1023800017461C46B3462046E31704EB5373DB1095
:1023900021464FEAE47C04EB5C7C4FEAEC0CA4EBB6
:1023A000CC0CBCF1000F02D04FF0010C01E04FF05B
:1023B000000C6344224604EBD27C4FEA6C0C03FB16
:1023C0000CF3DBB20093A7F12000C7B2002556E062
:1023D0000C2C07D107EB47002B4901EB800010F8CC
:1023E000059013E0102C05D1284800EB071010F8D9
:1023F00005900BE0182C07D107EBC700244901EB2F
:10240000800010F8059001E0BDE8F88F4FF0000A59
:102410002FE009F0800030B11E4802883146404666
:10242000FFF71AFF07E00A9828B91B4802883146CF
:102430004046FFF711FF4FEA49604FEA1069701CF0
:1024400086B216484088B04200DCDDE7A6EB0B0000
:10245000A0420AD15E4608F101001FFA80F80F4839
:102460000088404500DCCFE706E00AF1010000F0FB
:10247000FF0ABAF1080FCCDB00BF681CC5B2009898
:102480008542A5DB00BFBFE7B4BE010828C3010831
:1024900018C9010816000020180000201A000020AA
:1024A0002DE9FE4F07460E4691469A46DDE90D4B53
:1024B0000C9DB8460296002001904CE0019870BB3C
:1024C0002878802802DD0120019044E004EBD471DB
:1024D00008EB0902A2EB6101B94202DA301986B2B7
:1024E000474602985044001BB04200DA36E0287894
:1024F0000D2804D1301986B247466D1C07E0CDF88F
:1025000000B02A78234631463846FFF735FF6D1C68
:10251000204604EBD07107EB61018FB21BE0FFE7AF
:102520000020019008EB0900001BB84202DA3019C4
:1025300086B2474602985044001BB04200DA0DE0D4
:1025400023462A4631463846CDF800B000F03CF824
:10255000AD1C381987B228780028AFD100BFBDE87C
:10256000FE8F2DE9F84704460D4690469946DDE971
:10257000096704F0FF0A08EB04001FFA80F809EB72
:1025800005001FFA80F916E0444502DB5446A819FD
:1025900085B24D4500DB14E0002000903A783346C8
:1025A00029462046FFF7E8FE304606EBD07104EBE3
:1025B00061018CB27F1C38787E2802DC38782028B4
:1025C000E2DA00BFBDE8F8872DE9FF4FA1B007466A
:1025D0000D461C46AA462046E21704EB5272D21062
:1025E0002146E31704EB5373DB10A4EBC3030BB1D9
:1025F000012300E000231A44624302F0FF0B0C2C7D
:1026000008D0102C06D0182C04D0202C02D025B0D5
:10261000BDE8F08F224601A92398FFF71FFA002694
:102620002FE001A810F806804FF0000923E008F021
:10263000800030B11548028829463846FFF70CFE65
:1026400007E02E9828B91248028829463846FFF735
:1026500003FE4FEA48604FEA1068681C85B2A5EB9C
:102660000A00A04203D15546781C87B206E009F162
:10267000010000F0FF09B9F1080FD8DB00BF701CA2
:10268000C6B25E45CDDB00BFC1E7000016000020EA
:102690001800002001490880704700007E00006C8F
:1026A00000B503460A461846FFF7F4FF104600F04F
:1026B00001F800BD01490880704700008000006CEF
:1026C0000112044A1180C1B24FF0D842A2F8801022
:1026D000704700008000006C1CB50121202000F034
:1026E00073F801208DF804004002009003208DF85B
:1026F000050000208DF8060001208DF807006946CE
:102700000A48FFF73DF94FF400710848FFF7A3F9B5
:102710004FF48060009069460448FFF731F94FF4A8
:1027200080610248FFF797F91CBD000000140240C9
:1027300000BFFEE77047000070B5002100230F22A4
:10274000C4781CB3174C246804F4E064C4F5E06456
:10275000C4F30721C1F10404E3B20A4144789C4068
:10276000E1B28478144021430C07210E0E4C057809
:102770006155047804F01F050124AC4005786D1103
:10278000AD0005F1E025C5F8004109E0047804F04A
:102790001F050124AC40054D0678761145F826400A
:1027A00070BD00000CED00E000E400E080E100E01E
:1027B00002490143024A1160704700000000FA0517
:1027C0000CED00E07047000029B1064A1268024390
:1027D000044B1A6004E0034A12688243014B1A60FA
:1027E000704700003038024029B1064A126802439F
:1027F000044B1A6004E0034A12688243014B1A60DA
:10280000704700003838024029B1064A1268024376
:10281000044B1A6004E0034A12688243014B1A60B9
:10282000704700004038024029B1064A126802434E
:10283000044B1A6004E0034A12688243014B1A6099
:10284000704700002038024029B1064A126802434E
:10285000044B1A6004E0034A12688243014B1A6079
:10286000704700004438024029B1064A126802430A
:10287000044B1A6004E0034A12688243014B1A6059
:102880007047000024380240F0B5002100220024E7
:10289000022500260223324F3F6807F00C0121B1C8
:1028A000042905D0082937D105E02E4F076036E00E
:1028B0002D4F076033E02A4F3F1F3F68C7F3805614
:1028C000274F3F1F3F6807F03F036EB1264FB7FB0E
:1028D000F3F7DFF88CC0ACF1040CDCF800C0CCF3EB
:1028E000881C07FB0CF40CE01E4FB7FBF3F7DFF876
:1028F00070C0ACF1040CDCF800C0CCF3881C07FB02
:102900000CF4174F3F1F3F68C7F301477F1C7D0042
:10291000B4FBF5F7076002E0124F076000BF00BF8D
:102920000F4F3F6807F0F0010909104F7A5C076804
:10293000D74047600A4F3F6807F4E051890A0B4FC0
:102940007A5C4768D7408760054F3F6807F460416D
:10295000490B064F7A5C4768D740C760F0BD00005E
:10296000083802400024F40000127A000000002021
:10297000014988667047000000004742820142EA30
:102980000172014B1A607047843802401CB54FF445
:102990000070009000208DF8040001208DF80700E1
:1029A00069460248FEF7ECFF1CBD0000000402402F
:1029B0001CB54FF40070009001208DF80400002039
:1029C0008DF8060003208DF8050001208DF8070022
:1029D00069460248FEF7D4FF1CBD00000004024017
:1029E0007CB50546002400200090019000260DB122
:1029F000022600E000262248006800F0007008B1BE
:102A00000E207CBD1F49098888B26946FEF7EEFE9C
:102A100004460CB12046F4E7019800F4802060B32E
:102A20001848008800041849086037204860402092
:102A300088600020C8604FF480600861084600F09C
:102A40009BF83720FEF7C8F904460CB12046D8E7BA
:102A50000D48066006200C49486040208860002030
:102A6000C8604FF480600861084600F085F80620D1
:102A7000FEF7B2F904462046C3E72520C1E700006F
:102A8000142C014028000020F801002001490860B2
:102A900070470000382C01400146034A106820F0BE
:102AA000FF00084310607047042C014000210B4BCD
:102AB00002681A601B1D42681A601A1D116821F015
:102AC000F701D0E902231A4303691A4343691A4301
:102AD0001143024A0832116070470000242C014063
:102AE00001460020034A12680A400AB1012000E0B2
:102AF00000207047342C01400248006800F00300B9
:102B000070470000002C014010B500F08BFC10BD98
:102B100000210A4A116847F6FF629143027D8368EB
:102B20001A4343681A43C3681A4303681A43036984
:102B30001A431143014A116070470000042C014000
:102B400000200B490860091D0860091D0860091D67
:102B50000860074924310860091D0860091D0860E4
:102B600004480349383108600020091D0860704797
:102B7000002C0140FF07C0000021094B02681A60C9
:102B80001A1D11686FF30A01D0E901231A43C368C3
:102B90001A4303691A431143014A121D1160704719
:102BA000082C01400149086070470000002C0140DA
:102BB00070B590B004460E46154600BF1A48FEF7A1
:102BC000FDFA0028FAD11848FEF72AFA4FF0006003
:102BD00001901648029003940495002005900690F9
:102BE0004FF48060079080000890800009900020DA
:102BF0000A904FF440300B9004200C9003200D906D
:102C00004FF400000E9080100F9001A90648FEF7C7
:102C10002FFB20210448FEF7C6FA01210248FEF7E7
:102C2000F3F910B070BD000058640240802C0140E0
:102C300070B50446002516480078032802D12725E0
:102C4000284670BD1248007838B111480078012834
:102C500003D00F480078022817D1B4F5805F02D165
:102C600027252846EDE7E0B2FFF7BAFE054665B92D
:102C70000848006820F4C05006490860084600680B
:102C8000204308600846006808602846D9E700002D
:102C900024000020042C0140F0B501460020002251
:102CA000BE4B1B7881F85630BD4B1B88A1F85430C1
:102CB000BC4B1B681A0E93090B70C2F383034B7055
:102CC00002F003038B70B74B1B68C3F30742CA7053
:102CD000B44B1B88C3F307220A71B24B1A784A71AE
:102CE0005B681A0E1301CB80AE4B5B68C3F30742DF
:102CF000CB8843EA1213CB8002F00F030B72A94B6F
:102D00009B88C3F30722D3094B72C2F380138B72E3
:102D1000C2F34013CB72C2F300130B7300234B7347
:102D20009E4B1B783BB19D4B1B78012B03D09B4BDB
:102D30001B78032B4FD193071B0D0B61994B1A790D
:102D40000B6943EA82030B61964B9B681A0E0B6971
:102D500043EA92130B61C2F3C2030B7502F007033F
:102D60004B75904B9B68C3F3074253098B75C2F3B5
:102D70008203CB7593075B0F0B768A4B1B89C3F3DA
:102D800007220B7E43EAD2130B760B695B1C0024EF
:102D9000C1E912340B7E9B1C012404FA03F3DC17F7
:102DA000D1E91256A5FB037C06FB03C305FB0433E4
:102DB000C1E912730C7A0123A3400B650024D1E909
:102DC00012650B6DA6FB037C05FB03C306FB0433F6
:102DD000C1E912732EE0714B1B78022B2AD1714B83
:102DE0001A7993069B0A0B616E4B9B681A0E0B694E
:102DF00043EA02230B616B4B9B68C3F307420B69E9
:102E000013430B61674B1B89C3F307220B695B1CE0
:102E10004FF40074A3FB04464FF480630025A4FB29
:102E2000037C06FB03C304FB0533C1E912734FF4B3
:102E300000730B65C2F3801301F8193F93065B0E14
:102E40004B70584B1A7A4B7843EAD2134B7002F00E
:102E50007F038B70534BDB681A0ED309CB70C2F320
:102E600041130B71C2F382034B7193071B0F8B71DC
:102E70004C4BDB68C3F307428B7943EA92138B71A7
:102E8000C2F34013CB7100230B7202F001034B72AB
:102E9000444B9B89C3F30722D3098B72C2F380137F
:102EA000CB72C2F340130B73C2F300134B73C2F324
:102EB00081038B7302F00303CB733A4B1A7B5308E5
:102EC0000B7401234B74384B1B681A0ECA741939E2
:102ED000354B1B68C3F307421402CC85324B1B8869
:102EE000C3F30722CB8D1343CB852F4B1A781406DF
:102EF0000C635B681A0E0B6B43EA02440C632A4BAB
:102F00005B68C3F307420B6B43EA02240C63264B56
:102F10009B88C3F307220B6B13430B63224B1A7975
:102F200034235A54204B9B681A0E35235A541E4B97
:102F30009B68C3F3074214068C631B4B1B89C3F3C6
:102F400007228B6B43EA02448C63174B1A7A8B6B14
:102F500043EA02248C63144BDB681A0E8B6B134319
:102F60008B63114BDB68C3F307423C235B5C43EA92
:102F700012143C235C5413071C0DCC870A4B9B890D
:102F8000C3F30722CB8F1343CB87074B1A7B54081D
:102F900040235C54012441235C54F0BD24000020F4
:102FA0002800002024020020340200203EB5002426
:102FB000002501214448FFF707FC0121C802FFF763
:102FC00043FC0121C802FFF74FFC4FF4F850019079
:102FD00002208DF808008DF8090000208DF80A0005
:102FE00001208DF80B0001A93848FEF7C9FC042028
:102FF000019001A93648FEF7C3FC0C220821334892
:10300000FEF706FD0C2209213048FEF701FD0C22D7
:103010000A212E48FEF7FCFC0C220B212B48FEF760
:10302000F7FC0C2211462948FEF7F2FC0C22022183
:103030002748FEF7EDFC00214FF40060FFF714FC79
:10304000FFF77EFD31208DF8000000208DF8010093
:103050008DF8020001208DF803006846FFF76CFB35
:1030600000F0EEF8044614B900F038F804461CB934
:103070001848FFF711FE044634B91649B1F8541048
:10308000080400F073FD044624B94FF40060FFF714
:10309000CFFD04461CB110480078032812D10D481A
:1030A00090F8560020B10B4890F85600012801D145
:1030B000022500E000252846FFF7EEFC002000F086
:1030C0006DFD044620463EBD0C0040000008024055
:1030D000000C0240480200202400002038B50024E3
:1030E00001200090FFF708FD10B92524204638BDC7
:1030F0004D480078042824D000204C490860022064
:103100004860C02088600020C8604FF4806008617B
:103110000846FFF731FDFDF791FE04460CB120464D
:10312000E5E743480068434908604148001D0068DE
:1031300048603F480830006888603D480C300068AF
:10314000C8603948007858B137480078012807D05E
:1031500035480078062803D033480078022816D175
:103160000020324908600320486040208860002029
:10317000C8604FF4806008610846FFF7FDFC6946AF
:103180000320FDF7A1FE04460CB12046AFE7264818
:103190000078032816D1BDF8000000042349086018
:1031A00003204860402088600020C8604FF48060A1
:1031B00008610846FFF7E0FCFDF740FE04460CB14D
:1031C000204694E71848007804282AD0BDF800006B
:1031D00019490860BDF8000000041449086009207E
:1031E0004860C02088600020C8604FF4806008619B
:1031F0000846FFF7C1FCFDF721FE04460CB120464E
:1032000075E70B4800680D4908600948001D006813
:103210004860074808300068886005480C3000683E
:10322000C860002063E7000024000020F8010020AF
:10323000142C014034020020280000202402002029
:103240002DE9F0470027002400260025A046A146CE
:1032500076206E4908750020086048608860C86064
:1032600008610846FFF754FC0320FFF79BFC684801
:10327000006840F480706649086000BF12E00020DA
:103280006449086048608860C8604FF480600861E5
:103290000846FFF771FCFDF787FD044604B903E01B
:1032A000781CC7B24A2FEADB00BF14B12046BDE844
:1032B000F0874FF4D57057490860082048604020D7
:1032C00088600020C8604FF4806008610846FFF7FE
:1032D00053FCFDF743FE044624B901204E49087013
:1032E0004FF0804900204B4908603720486040205B
:1032F00088600020C8604FF4806008610846FFF7CE
:103300003BFC3720FDF768FD0446002C4CD135E02E
:103310000020404908603720486040208860002035
:10332000C8604FF4806008610846FFF725FC37202D
:10333000FDF752FD04460CB12046B8E7374849EA8C
:10334000000034490860292048604020886000203F
:10335000C8604FF4806008610846FFF70DFCFDF778
:1033600097FD04460CB12046A1E7294810300668B5
:10337000012080EAD67080F001086D1CB8F1000FC2
:1033800003D14FF6FF708542C2D34FF6FF708542DE
:1033900002D31B2420468AE706F08040061E33D065
:1033A00002201D4908702FE01DE01D4819490860E2
:1033B00001204860402088600020C8604FF4806091
:1033C00008610846FFF7D8FBFDF762FD04460CB123
:1033D00020466CE70E4810300668012080EAD6705F
:1033E00080F001086D1CB8F1000F03D14FF6FF709B
:1033F0008542DAD34FF6FF70854202D31B24204664
:1034000055E7032004490870204650E7E0010020FA
:10341000042C0140F801002024000020000010804E
:103420000080FF8010B54FF48070FFF759FB78B330
:103430004C480078012814D100204B4908600C202A
:103440004860402088600020C8604FF480600861B8
:103450000846FFF791FB0C20FDF7BEFC43490870BE
:1034600002E00020414908704148006840F4807043
:103470003F490860081D00684CF23A3188433C49D6
:10348000091D086001203B4908703848007810BDCC
:10349000FFE70220FFF724FB78B10220FFF7F6FADE
:1034A0003348001D00684CF23A3188433049091D09
:1034B000086002202D490870E9E70820FFF710FB9B
:1034C00078B10820FFF7E2FA2948001D00684CF2A5
:1034D0003A3188432649091D0860042023490870B1
:1034E000D5E72020FFF7FCFA78B12020FFF7CEFACD
:1034F0001F48001D00684CF23A3188431C49091DE1
:103500000860062019490870C1E71020FFF7E8FAA3
:1035100078B11020FFF7BAFA1548001D00684CF288
:103520003A3188431249091D086005200F49087087
:10353000ADE74FF40070FFF7D3FA80B14FF400709D
:10354000FFF7A4FA0A48001D00684CF23A3188439C
:103550000749091D086007200449087097E7002003
:1035600095E700002D000020F80100202E0000202B
:10357000382C01402F0000202DE9F84F81461746D6
:1035800098460A9C4FF0000AD3464D464FF0FF364E
:10359000B9F1000F02D12620BDE8F88F002086493E
:1035A000086086480078022805D10402780A40EABB
:1035B000C8574FEA68280020814988604860401E4B
:1035C0000860012048610020C86008610846FFF7D4
:1035D0006DFA79481838006800F0007008B10E20C4
:1035E000DAE7002C21DDB4F5006F1EDC601E204000
:1035F000D8B9204603F052FB0090724804601020B6
:1036000070494860402088600020C8604FF48060A6
:1036100008610846FFF7B0FA1020FDF7DDFB82468F
:10362000BAF1000F03D05046B6E72620B4E7009861
:10363000000163498860084644604FF0FF3008602D
:10364000012048610220C860002008610846FFF799
:103650002DFA5C48076011205A4948604020886074
:103660000020C8604FF4806008610846FFF784FAC4
:103670001120FDF7B1FB8246BAF1000F01D0504690
:103680008AE75148007800285CD1FCF787FD18E0F4
:103690004FF40040FFF724FA78B14FF0000B06E03A
:1036A00045485430006845F82B000BF1010BBBF185
:1036B000080FF5D32035454E03E00EB904206BE723
:1036C000761E3D480830006840F22A610840002814
:1036D000DED00820FFF704FA20B10820FFF7D6F962
:1036E000042059E70220FFF7FBF920B10220FFF781
:1036F000CDF9022050E72020FFF7F2F920B1202079
:10370000FFF7C4F9062047E74FF40070FFF7E8F928
:1037100028B14FF40070FFF7B9F907203CE704E047
:1037200025485430006828602D1D4FF40010FFF725
:10373000D7F90028F4D1FCF733FD40F2FF50FFF732
:10374000A5F936E020480078012832D10020204930
:103750000870204908702049087017481030006828
:1037600040F22A31084314491031086012480068B9
:1037700040F0080010490860002221464846FFF743
:1037800017FA00E0761E1548006800F0006038B9AE
:103790001148007820B90E48007808B9002EF1D100
:1037A0000EB90420F8E60A48007810B1084890F8ED
:1037B00000A05046F0E600002C2C01402400002020
:1037C0000C020020F80100202C000020FFFF7F00E9
:1037D0002E0000202D0000202F0000200064024059
:1037E0002DE9FE4F83460C469146002002900026AC
:1037F00025462C46700240EAD5566D020BF00300B8
:10380000F0B14FF0000A18E04FF4007000904FEA5A
:103810004A20471946EBE0733A461648FFF7ACFEDC
:1038200002904FF4007213495846FCF72FFD0BF538
:10383000007B0AF1010000F0FF0ACA45E4DB16E054
:10384000B9F1010F09D14FF400702A4633460090B8
:103850005846FFF791FE029009E04FF400702A46A7
:103860003346CDE90009584600F006F80290029868
:10387000BDE8FE8FA00200202DE9FF5F17469846A5
:10388000DDE90E464FF00009CA464FF0FF35AC495E
:10389000009808600020AB490860AB480078022817
:1038A00005D10402780A40EAC8574FEA6828002088
:1038B000A64988604860401E0860012048610020D9
:1038C000C86008610846FFF7F1F89E48183800689C
:1038D00000F0007018B10E2004B0BDE8F09F002C7D
:1038E00021DDB4F5006F1EDC601E2040D8B92046F3
:1038F00003F0D4F983469648046010209449486048
:10390000402088600020C8604FF48060086108464D
:10391000FFF732F91020FDF75FFA8146B9F1000F89
:1039200003D04846D8E72620D6E7012E71D906FBFA
:1039300004F0B0F1007F01D32620CDE74FEA0B1051
:103940008249886006FB04F048604FF0FF30086051
:10395000012048610220C860002008610846FFF786
:10396000A5F87B48076012207949486040208860AC
:103970000020C8604FF4806008610846FFF7FCF83B
:103980001220FDF729FA8146B9F1000F01D048460F
:10399000A2E77048007800287ED1FCF7FFFB1EE00C
:1039A0004FF40040FFF79CF8A8B14FF0000A08E080
:1039B0006448543000686249096841F82A000AF1F5
:1039C000010ABAF1080FF3D35D48006820305C4962
:1039D0000860614D03E00DB904207DE76D1E594874
:1039E0000830006840F22A3108400028D8D008206A
:1039F000FFF776F820B10820FFF748F804206BE7BE
:103A00000220FFF76DF828B10220FFF73FF80220EF
:103A100062E792E02020FFF763F820B12020FFF753
:103A200035F8062058E74FF40070FFF759F828B131
:103A30004FF40070FFF72AF807204DE70AE04148ED
:103A4000543000683E49096808603D480068001D20
:103A50003B4908604FF40010FFF742F80028EED110
:103A60004FF48070FFF73CF820B33748007838B146
:103A700035480078012803D033480078022819D14E
:103A80000020334908600C204860402088600020F6
:103A9000C8604FF4806000E013E008610846FFF75B
:103AA0006BF80C20FDF798F98146B9F1000F01D0B1
:103AB000484611E7FCF774FB40F2FF50FEF7E6FFC3
:103AC0003BE024480078012837D1002023490870C2
:103AD000012023490870002022490870194810303D
:103AE000006840F22A310843164910310860154831
:103AF000006840F008001349086006FB04F100224A
:103B00000098FFF755F800E06D1E1748006800F0B8
:103B1000006008B9002DF7D10DB90420DCE600BF24
:103B20001048007818B90D4800780028F8D00B48E4
:103B3000007810B1094890F800904846CCE60000A3
:103B4000300000202C2C0140240000200C0200201A
:103B5000F80100202C000020FFFF7F002E00002035
:103B60002D0000202F0000200064024010B5044604
:103B70000948046007200849486040208860002008
:103B8000C8604FF4806008610846FEF7F5FF072023
:103B9000FDF722F910BD0000F801002001460020C9
:103BA000012900D011B9024B197000E0262070479E
:103BB0002C0000202DE9FF5F86B017469846149D23
:103BC0000026002005900490002481460390824640
:103BD00002900195DDF818B0DDF818B0BBF1000FC8
:103BE00003D126200AB0BDE8F09F0020C949086033
:103BF000C94988604860401E086001204861002073
:103C0000C86008610846FEF751FFC24818380068CE
:103C100000F0007008B10E20E4E7C04800780228E8
:103C200005D10502780A40EAC8574FEA6828002DF6
:103C30001FDDB5F5006F1CDC681E2840C8B928469A
:103C400003F02CF80590B64805601020B449486090
:103C5000402088600020C8604FF4806008610846FA
:103C6000FEF78AFF1020FDF7B7F806461EB1304672
:103C7000B8E72620B6E7AB4800880004A8490860EA
:103C80000D204860402088600020C8604FF48060AC
:103C900008610846FEF770FF0D20FDF79DF8064607
:103CA0000EB130469EE79B481838006803904FF0ED
:103CB000FF341CE0641E9B4800880004984908609B
:103CC0000D204860402088600020C8604FF480606C
:103CD00008610846FEF750FF0D20FDF77DF8064607
:103CE0000EB130467EE78B48183800680390039881
:103CF00000F4807008B9002CDCD10CB9292071E7E0
:103D00008748076018208649486040208860002066
:103D1000C8604FF4806008610846FEF72DFF182048
:103D2000FDF75AF806460EB130465BE700207E49A3
:103D300008700598000178498860084645604FF092
:103D4000FF300860012048610020C8600861084613
:103D5000FEF7ACFE4FF0FF347448007800287ED1A7
:103D6000FCF71CFA45E04FF48040FEF7B9FED8B3EB
:103D70000198A0EB0900202822D20198A0EB0900AD
:103D800000F0030020B90198A0EB0900800804E0CE
:103D90000198A0EB09008008401C02904FF0000A37
:103DA0000AE05C495431DBF8000008600AF1010ABE
:103DB0000BF1040B09F1040902988245F1D310E0DC
:103DC0004FF0000A06E05BF82A00524954310860BF
:103DD0000AF1010ABAF1080FF5D30BF1200B09F132
:103DE00020096FF0404404E0FFE70CB90420F9E635
:103DF000641E48480830006840F21A6108400028F4
:103E0000B1D00820FEF76CFE20B10820FEF73EFE80
:103E10000420E7E60220FEF763FE20B10220FEF751
:103E200035FE0220DEE61020FEF75AFE20B11020FB
:103E3000FEF72CFE0520D5E64FF40070FEF750FE8D
:103E400030B14FF40070FEF721FE0720CAE606E00D
:103E5000FCF7A6F940F2FF50FEF718FE41E03348A8
:103E6000007801283DD10020314908702E490870A2
:103E70003049087027481030006840F21A31084372
:103E8000244910310860402229460698FEF790FE2A
:103E90002048006840F008001E49086000E0641EE9
:103EA0002548006800F0006008B9002CF7D11CB963
:103EB000FFF77CF8042095E64FF0FF3400E0641E25
:103EC0001C48007820B91A48007808B9002CF6D1AF
:103ED0000CB9042086E61648007810B11448007822
:103EE00080E640F2FF50FEF7D1FD04A8FEF7A2F8ED
:103EF000064603E004A8FEF79DF806463EB99DF885
:103F000010000728F6D09DF810000628F2D03046A1
:103F100068E600002C2C01400C0200202400002048
:103F2000F8010020280000202D0000202C00002097
:103F30002E0000202F000020006402402DE9FE4FDB
:103F400081460C46924600200290002625462C46CB
:103F5000700240EAD5566D0209F00300F0B14FF04F
:103F6000000B18E04FF4007249461948FCF78EF92F
:103F70004FF4007000904FEA4B20471946EBE07376
:103F80003A461348FFF716FE029009F500790BF147
:103F9000010000F0FF0BD345E4DB16E0BAF1010F9E
:103FA00009D14FF400702A46334600904846FFF787
:103FB00001FE029009E04FF400702A463346CDE935
:103FC000000A484600F006F802900298BDE8FE8F0D
:103FD000A00200202DE9FF5F84B0DDE91247002632
:103FE000002003900290002580468146019007FB47
:103FF00004FBDDF810A0DDF810A0BAF1000F03D12A
:10400000262008B0BDE8F09F0020DC490860DC49AC
:1040100088604860401E0860012048610020C86038
:1040200008610846FEF742FDD4481838006800F0E1
:10403000007008B10E20E4E7D2480078022808D1C9
:104040000402DDE90601400A40EAC1504912CDE907
:104050000601002C1FDDB4F5006F1CDC601E204043
:10406000C8B9204602F01AFE0390C7480460102029
:10407000C5494860402088600020C8604FF48060D7
:1040800008610846FEF778FD1020FCF7A5FE0646FD
:104090001EB13046B5E72620B3E7012F6FD907FBE5
:1040A00004F0B0F1007F01D32620AAE7B5480078DC
:1040B00038B1B4480078012803D0B248007802280B
:1040C0002DD1B24800880004AF490860372048600D
:1040D000402088600020C8604FF480600861084676
:1040E000FEF74AFD3720FCF777FE06460EB1304654
:1040F00087E7A54807601720A349486040208860EB
:104100000020C8604FF4806008610846FEF734FD67
:104110001720FCF761FE06460EB1304671E79A495A
:104120000698086019204860402088600020C86018
:104130004FF4806008610846FEF71EFD1920FCF769
:104140004BFE06460EB130465BE7039800018C49F2
:10415000886007FB04F048604FF0FF3008600120E2
:1041600048610020C86008610846FEF79FFC884847
:104170000078002874D1451EFCF710F842E0E4E016
:104180004FF48040FEF7ACFCB8B3ABEB080020283E
:104190001FD2ABEB080000F0030018B9ABEB08002E
:1041A000800803E0ABEB08008008401C01904FF052
:1041B00000090AE071495431DAF80000086009F199
:1041C00001090AF1040A08F1040801988145F1D3B4
:1041D00010E04FF0000906E05AF829006749543111
:1041E000086009F10109B9F1080FF5D30AF1200AB5
:1041F00008F120086FF0404504E0FFE70DB9042006
:10420000FFE66D1E5D480830006840F21A31084034
:104210000028B5D00820FEF763FC20B10820FEF787
:1042200035FC0420EDE60220FEF75AFC20B1022006
:10423000FEF72CFC0220E4E61020FEF751FC20B132
:104240001020FEF723FC0520DBE64FF40070FEF79C
:1042500047FC30B14FF40070FEF718FC0720D0E6A1
:104260002CE04FF48070FEF73BFC00B3454800782B
:1042700038B144480078012803D042480078022829
:1042800015D10020404908600C204860402088601B
:104290000020C8604FF4806008610846FEF76CFC9F
:1042A0000C20FCF799FD06460EB13046A9E6FBF757
:1042B00077FF40F2FF50FEF7E9FB46E03448007814
:1042C000012842D10020334908700120324908708A
:1042D00000203249087029481030006840F21A3135
:1042E000084326491031086007FB04F14022049876
:1042F000FEF75EFC2148006840F008001F49086096
:104300004FF0FF3500E06D1E2548006800F00060AA
:1043100008B9002DF7D11DB9FEF748FE042070E65C
:104320004FF0FF3500E06D1E1C48007820B9194899
:10433000007808B9002DF6D10DB9042061E61548C2
:10434000007810B1134800785BE640F2FF50FEF7AA
:104350009DFB02A8FDF76EFE064603E002A8FDF7EE
:1043600069FE06463EB99DF808000728F6D09DF87C
:1043700008000628F2D0304643E600002C2C01400D
:104380000C02002024000020F8010020280000205A
:104390002C0000202E0000202D0000202F000020E7
:1043A0000064024000B587B001210220FEF70CFA3C
:1043B00001210803FEF748FA052203212848FDF7EA
:1043C00027FB052204212648FDF722FB0522114682
:1043D0002348FDF71DFB3820059002208DF81800BA
:1043E00000208DF81A0003208DF8190001208DF8A7
:1043F0001B0005A91A48FDF7C3FA01210803FEF7BF
:1044000033FA00214FF48050FEF72EFA0020ADF869
:1044100000004FF48270ADF802000020ADF80400F7
:104420000220ADF806000120ADF808004002ADF80A
:104430000A003820ADF80C000020ADF80E0007206F
:10444000ADF810006946074800F061F80121054801
:1044500000F03AF8FF2000F007F807B000BD0000B8
:10446000000402400030014010B5044600BF0221A4
:104470000A4800F03EF80028F9D02146074800F02D
:1044800044F800BF0121054800F033F80028F9D0B6
:10449000024800F037F8C0B210BD00000030014003
:1044A00010B50446074800884FF6C7710840054913
:1044B000088008460088204308800121014800F058
:1044C00003F810BD0030014021B1028842F04002E3
:1044D000028004E002884FF6BF731A4002807047E2
:1044E0001AB183880B43838002E083888B438380E7
:1044F00070470246002013890B400BB1012000E0F9
:10450000002070470146888970478181704710B547
:104510000022028802F441520B884C8823438C8885
:104520002343CC8823430C8923434C8923438C8920
:104530002343CC8923431A430280838B4FF2FF74B9
:10454000234083830B8A038210BD70470CB5002083
:10455000019000903448006840F48030324908608F
:1045600000BF3148006800F4003000900198401C02
:104570000190009818B90198B0F5A04FF1D12A48E0
:10458000006800F4003010B10120009001E000202C
:1045900000900098012846D123484030006840F040
:1045A00080502149403108602048006840F4404074
:1045B0001E4908601C48083000681B490831086023
:1045C0000846006840F4004008600846006840F46F
:1045D000A05008601648091F0860081F006840F0D6
:1045E0008070091F086000BF0F48006800F000706D
:1045F0000028F9D040F205700E4908600A480830DA
:10460000006820F003000849083108600846006887
:1046100040F00200086000BF03480830006800F066
:104620000C000828F8D10CBD003802400070004092
:1046300008544007003C0240042808D14FF0E02114
:10464000096941F004014FF0E022116107E04FF0E9
:10465000E021096921F004014FF0E0221161704767
:104660007047000010B504466FF00400FFF7E4FF48
:10467000E11704EB5171C1F3C701074A11701046ED
:10468000007800EB4001C1EBC0104FF6FF7101EA6A
:10469000C0000249088010BD100000201200002058
:1046A00010B51548006840F47000134908601348BD
:1046B000006840F001001149086000200F490831EE
:1046C00008600E4800680E4908400C4908600D4813
:1046D000091D0860081F006820F48020091F086079
:1046E000002006490C310860FFF730FF4FF00060F2
:1046F00001498039086010BD88ED00E000380240B3
:10470000FFFFF6FE1030002400B59DB001210846E1
:10471000FEF76AF80F2007900020089060200990AB
:1047200000200A900B900C900D90152000900190A5
:10473000052002900020039004900590069006202A
:104740000E9000200F9010901020119000201290D9
:1047500014901390159016904FF4805017900020ED
:1047600018904FF48040199000201A9007A81B90D1
:10477000CDF870D00EA8FCF7A5FF01210620FCF7AC
:1047800087FF1DB000BD00001CB501217820FEF799
:104790001BF801210220FEF717F80C220E216248B7
:1047A000FDF736F90C220F215F48FDF731F90C2295
:1047B00000215D48FDF72CF90C2201215A48FDF734
:1047C00027F90C2207215948FDF722F90C2208216C
:1047D0005648FDF71DF90C2209215448FDF718F938
:1047E0000C220A215148FDF713F90C220B214F48E6
:1047F000FDF70EF90C2211464C48FDF709F90C2281
:104800000D214A48FDF704F90C220E214748FDF717
:10481000FFF80C220F214548FDF7FAF80C22082179
:104820004148FDF7F5F80C2209213F48FDF7F0F863
:104830000C220A213C48FDF7EBF80C2204213A48EF
:10484000FDF7E6F80C2205213748FDF7E1F80C22C8
:1048500011463748FDF7DCF80C2211463548FDF7C4
:10486000D7F84CF23370009002208DF8040000203D
:104870008DF8060003208DF8050001208DF8070053
:1048800069462948FDF77CF84FF6807000900220B9
:104890008DF8040000208DF8060003208DF8050037
:1048A00001208DF8070069462048FDF769F84FF4AC
:1048B0008050009002208DF8040000208DF8060042
:1048C00003208DF8050001208DF80700694618487F
:1048D000FDF756F84FF48050009002208DF8040048
:1048E00000208DF8060003208DF8050001208DF8CA
:1048F000070069460F48FDF743F84FF40040009069
:1049000001208DF8040000208DF8060002208DF8AB
:10491000050001208DF8070069460748FDF730F8CB
:104920000120064908601CBD000C02400010024036
:10493000001402400018024000040240BC824042C1
:1049400010B5FFF721FFFFF7DFFE322004F064FC13
:10495000DA20FDF79FFE78480088784988804FF07C
:10496000D840B0F880004FF6FF7101EA002073498B
:104970008880DB20FDF78EFE704880884FF0D8419C
:10498000B1F8801008436D498880084680884FF050
:10499000D841B1F88010084368498880E020FDF7CD
:1049A00079FE0020FDF786FE1320FDF783FE182018
:1049B000FDF780FE0420FDF77DFE0F20FDF77AFE57
:1049C0000620FDF777FE3A20FDF774FE5620FDF72E
:1049D00071FE4D20FDF76EFE0320FDF76BFE0A20F1
:1049E000FDF768FE0620FDF765FE3020FDF762FE4C
:1049F0003E20FDF75FFE0F20FDF75CFEE120FDF796
:104A000049FE0020FDF756FE1320FDF753FE182047
:104A1000FDF750FE0120FDF74DFE1120FDF74AFE87
:104A20000620FDF747FE3820FDF744FE3420FDF751
:104A300041FE4D20FDF73EFE0620FDF73BFE0D201A
:104A4000FDF738FE0B20FDF735FE3120FDF732FE75
:104A50003720FDF72FFE0F20FDF72CFEC020FDF7BD
:104A600019FE1820FDF726FE1720FDF723FEC120B2
:104A7000FDF710FE4120FDF71DFEC520FDF70AFEE3
:104A80000020FDF717FE1A20FDF714FE8020FDF729
:104A900011FE3620FDF7FEFD0820FDF70BFE3A2043
:104AA000FDF7F8FD5520FDF705FEB020FDF7F2FDFE
:104AB0000020FDF7FFFDB120FDF7ECFDA020FDF784
:104AC000F9FDB420FDF7E6FD0220FDF7F3FDB62069
:104AD000FDF7E0FD0020FDF7EDFD2220FDF7EAFDEA
:104AE0003B20FDF7E7FDE920FDF7D4FD0020FDF7B1
:104AF000E1FDF720FDF7CEFDA920FDF7DBFD5120FC
:104B0000FDF7D8FD2C20FDF7D5FD8220FDF7D2FD65
:104B10001120FDF7BFFD782004F07EFB2920FDF772
:104B2000B9FD2C20FDF7B6FD0020FDF769FB4FF61F
:104B3000FF70FDF741FB10BD8000006C1A000020E3
:104B400010B50121084800F0AEF8012807D1074848
:104B5000018807A000F010FC002004490880012112
:104B6000014800F091F810BD00040040B0000020A2
:104B70006672616D653A25640D0A00007FB50546D1
:104B80000C4601210220FDF73FFE0295ADF80440DE
:104B90000020ADF80600ADF80C0001A90D4800F0AA
:104BA0009DF8012211460B4800F08EF801210948BA
:104BB00000F06DF81D208DF8000001208DF8010037
:104BC00003208DF8020001208DF803006846FDF7F0
:104BD000B3FD7FBD0004004010B50121084800F07E
:104BE00062F838B10748006808B9012000E00020E9
:104BF000044908600121024800F046F810BD000099
:104C000000080040A882424210B50121054800F08A
:104C10004AF8012801D1044908700121014800F037
:104C200033F810BD00100040B20000207FB50546EB
:104C30000C4601211020FDF7E7FD0295ADF8044078
:104C40000020ADF80600ADF80C0001A90D4800F0F9
:104C500045F8012211460B4800F036F801210948B9
:104C600000F015F836208DF8000000208DF80100C6
:104C700003208DF8020001208DF803006846FDF73F
:104C80005BFD7FBD00100040CA430282704721B126
:104C9000028842F00102028004E002884FF6FE73AF
:104CA0001A400280704730B50246002000230024DD
:104CB000158A05EA0103958905EA010413B10CB1CF
:104CC000012000E0002030BD1AB183890B438381AD
:104CD00002E083898B4383817047000000220288B1
:104CE000184B98420ED0184B98420BD0B0F1804F21
:104CF00008D0164B984205D0154B984202D0154B60
:104D0000984204D14FF68F731A404B881A43124BC6
:104D1000984207D0114B984204D04FF6FF431A40F7
:104D20000B891A4302804B68C3620B880385054BCD
:104D3000984202D0044B984201D18B7A038601231A
:104D400083827047000001400004014000040040DD
:104D500000080040000C004000100040001400401B
:104D600010B540F225511D4800F0BAF810B31B48A9
:104D700000F070F9C4B21A48008800F40040C8B9C5
:104D80001748008800F4804060B10A2C03D000204E
:104D90001349088020E01248008840F40040104980
:104DA000088019E00D2C06D10D48008840F48040A1
:104DB0000B49088010E00A480088C0F30D0009493B
:104DC0000C5407480088401C0549088008460088A4
:104DD000C72801DD0020088010BD00000010014040
:104DE000140000201801002010B588B004460121ED
:104DF0000846FDF7E9FC01211020FDF725FD0722FB
:104E000009212448FCF704FE07220A212148FCF767
:104E1000FFFD4FF4C060069002208DF81C008DF855
:104E20001D0000208DF81E0001208DF81F0006A92E
:104E30001848FCF7A5FD02940020ADF80C00ADF871
:104E40000E00ADF81000ADF814000C20ADF8120003
:104E500002A9114800F094F801210F4800F027F84A
:104E600040210D4800F01AF8012240F225510A486D
:104E700000F060F825208DF8040003208DF805006F
:104E80008DF8060001208DF8070001A8FDF754FCFD
:104E900008B010BD000002400010014001F4007293
:104EA000B2F5007F00D100BFCA430280704721B134
:104EB000828942F40052828104E082894DF6FF73B8
:104EC0001A408281704702460020B1F5007F00D170
:104ED00000BF13880B400BB1012000E00020704799
:104EE00070B50246002400230025002040F66A1613
:104EF000B14200D100BFC1F3421501F01F030126EA
:104F000006FA03F3012D02D19689334006E0022D03
:104F100002D1168A334001E0968A33400C120126F2
:104F200006FA04F41688344013B10CB1012000E0F5
:104F3000002070BDF0B503460024002600250020A7
:104F400040F66A17B94200D100BF1846C1F34214B7
:104F500001F01F06012707FA06F5012C01D10C30DC
:104F600004E0022C01D1103000E014301AB10768BF
:104F70002F43076002E00768AF430760F0BD000001
:104F80002DE9FF4705460E460024A14600BFA04676
:104F9000B08900B100BF2C8A24F44054F088044347
:104FA0002C82AC8941F20C608443B088318908437B
:104FB000718908430443AC81AC8A24F44074B089FD
:104FC0000443AC826846FDF75FFC2048854202D06E
:104FD0001F48854202D1DDF80C9001E0DDF8089011
:104FE000A88900F4004040B109EBC90000EB0910AA
:104FF00031684900B0FBF1F707E009EBC90000EBAD
:10500000091031688900B0FBF1F76420B7FBF0F0BC
:1050100004012009642101FB1078A88900F40040F4
:1050200040B1322000EBC800B0FBF1F000F0070007
:10503000044308E0322000EB08106421B0FBF1F0DB
:1050400000F00F0004432C81BDE8FF8700100140F1
:105050000014014001468888C0F308007047C1F37E
:1050600008028280704700BFFEE770B505460E4615
:10507000032000F03DF9044615B144F0030401E0BB
:1050800024F003042146032000F04CF9022000F034
:105090002FF9044616B144F0030401E024F00304A0
:1050A0002146022000F03EF970BD70B5044604F0C0
:1050B00007042F2000F01CF9054625F0070545EAF6
:1050C00004012F2000F02EF9302000F011F90546E0
:1050D00025F0070545EA0401302000F023F970BDF2
:1050E00070B504460D4604F03F0405F03F050CB9C9
:1050F00044F040040DB945F040052146342000F04D
:1051000011F945F48071352000F00CF970BD70B5CF
:1051100004460D4604F0030405F00305E00040EAF0
:105120004511042000F0FEF870BD00001CB50121FF
:105130000620FDF749FB4FF44050009002208DF807
:10514000040000208DF8060003208DF805000120E2
:105150008DF8070069463248FCF712FC4C2000909D
:1051600002208DF8040000208DF8060003208DF841
:10517000050001208DF8070069462A48FCF700FC6D
:1051800005220C212648FCF743FC05220D2124486A
:10519000FCF73EFC052203212248FCF739FC0522DE
:1051A00006212048FCF734FC062202211D48FCF7AA
:1051B0002FFCFCF789FE0021084600F0B3F80446F6
:1051C0000CB101201CBD1B21012000F0ABF84FF4F5
:1051D000D871022000F0A6F86C21032000F0A2F89C
:1051E0000021062000F09EF810212B2000F09AF8F4
:1051F0004FF480712F2000F095F84FF4807130202B
:1052000000F090F80221312000F08CF808210A20EB
:1052100000F088F808210E2000F084F80020D1E783
:1052200000040240000802402DE9F04105460E4608
:105230001746022000F05CF8044615B144F00C0457
:1052400001E024F00C042146022000F06BF82C2031
:1052500000F04EF8044615B144F0330401E024F0A8
:10526000330421462C2000F05DF81EB1052000F02B
:105270000EF802E0002000F00AF81FB10720FFF747
:1052800014FF02E00020FFF710FFBDE8F08170B5C9
:10529000044604F007042F2000F02AF8054625F004
:1052A000700545EA04112F2000F03CF8302000F092
:1052B0001FF8054625F0700545EA0411302000F07E
:1052C00031F870BD70B506460D4600240EB144F0AD
:1052D00001041DB144F0020444F0140421463220BC
:1052E00000F020F82146332000F01CF870BD0000CB
:1052F0000146024830F811007047000038000020D5
:1053000010B5044604F03F040CB944F040042146B3
:10531000362000F007F844F48071372000F002F8DE
:1053200010BD000070B505460C46FCF725FE342084
:10533000FCF7F0FDFCF758FE08B1012070BDC4F386
:10534000002141EA4501C8B2FCF7E4FDFCF74CFE40
:1053500008B10220F2E7E0B2FCF7DCFDFCF744FE06
:1053600008B10320EAE7FCF723FE024820F81540C5
:105370000020E3E7380000200FB4054B10B503A967
:10538000044A029800F02CF810BC5DF814FB0000F1
:1053900039BA0008140100200FB4084B10B504A955
:1053A00002AA039800F01CF8044602A9002000F0AD
:1053B00048FA204610BC5DF814FB00004358000872
:1053C00002E008C8121F08C1002AFAD170477047CE
:1053D000002001E001C1121F002AFBD1704700002C
:1053E0002DE9FF4F8DB00F460546002606E0252823
:1053F0000BD0DDE90F1290476D1C761C2878002831
:10540000F5D111B03046BDE8F08F0024A246A14688
:105410000122EC4900E0044315F8013F203B02FA69
:1054200003F00842F7D128782A2810D06FF02F0215
:105430002878A0F13001092914D80AEB8A0102EB7F
:10544000410144F0020400EB010A6D1CF0E701CFBA
:105450005FEA000A03D544F40054CAF1000A44F09C
:1054600002046D1C28782E2817D115F8010F44F07E
:1054700004042A280ED06FF02F022878A0F1300102
:1054800009290AD809EB890102EB410100EB010966
:105490006D1CF2E757F8049B6D1C28786C280FD020
:1054A00006DC4C2817D068280DD06A2814D104E0F7
:1054B000742810D07A280FD10DE044F400140AE0CB
:1054C00044F4801401E044F440146978814202D12C
:1054D00004F580146D1C6D1C2A786E2A1FD00CDC1C
:1054E000632A31D004DC002A8BD0582A11D1A3E0E2
:1054F000642A68D0692A0CD165E0732A2ED004DCB6
:105500006F2A73D0702A04D19BE0752A6FD0782A55
:105510006ED01046DDE90F129047761C50E1C4F3BF
:105520000250022806D0032809D0042801CF09D050
:10553000066045E101CFF117C0E9006140E101CF0C
:1055400006803DE106703BE117F8040B8DF8000082
:1055500000208DF80100EB46012003E057F804BB62
:105560004FF0FF3061074FF0000102D40DE008F169
:105570000101884649450FDA8045F8DB1BF8081021
:105580000029F4D108E008F1010188468142FADBE4
:105590001BF808100029F6D1DDE90F23AAEB08005B
:1055A0008146214600F036F9304400EB080604E05D
:1055B000DDE90F121BF8010B9047B8F10108F7D293
:1055C00021464846F7E00A21C4F302534FF0000B8E
:1055D0000891022B04D001CFC117032B09D00AE098
:1055E000FF1D27F00707F7E8020108E032E01FE09F
:1055F00020E000B2C117042B01D140B2C117031E35
:1056000071F1000307DA4FF0000CD0EB0C006CEBEB
:1056100001012D2302E0230504D52B238DF824302E
:10562000012303E0E30701D02023F7E7984658E081
:105630000A2110E010210EE010204FF0000B08901E
:105640000CE010214FF0000B44F004044FF0080967
:10565000089103E008214FF0000B0891C4F30253B6
:10566000022B04D001CF0021032B06D006E0FF1D42
:1056700027F00707F7E8020103E080B2042B00D10E
:10568000C0B24FF0000823072BD5702A07D0DDF8F1
:1056900020C08CF0100C5CEA0B0C05D00EE040230F
:1056A0008DF82430012308E050EA010306D03023AE
:1056B0008DF824308DF8252002239846DDF820C08F
:1056C0008CF0080C5CEA0B0C0BD150EA010301D101
:1056D000630706D530238DF824304FF00108A9F177
:1056E0000109582A04D038A20B9208AA0A920BE0AA
:1056F0003AA2F9E75B46089AFAF766FD0B9B9B5CBA
:105700000A9A521E0A92137050EA0102F2D10A98C4
:10571000ADEB000000F1200B600702D524F48034CB
:1057200001E04FF00109D94502DDA9EB0B0000E0D3
:10573000002000EB0B0141440890AAEB010AE003B2
:1057400006D4DDE90F232146504600F063F80644F5
:105750004FF0000908E009A911F80900DDE90F126E
:10576000904709F10109761CC145F4DBE0030CD533
:10577000DDE90F232146504600F04CF8064404E0D2
:10578000DDE90F1230209047761C0899481E0890DA
:105790000029F5DC08E00A980A990078491C0A916A
:1057A000DDE90F129047761CBBF10001ABF1010B54
:1057B000F1DC21465046DDE90F2300F019F80644DC
:1057C0006D1C1BE609280100303132333435363781
:1057D000383961626364656600000000303132333D
:1057E00034353637383941424344454600000000DD
:1057F0002DE9F041044600251E461746880404D4CE
:1058000005E039462020B0476D1C641EF9D52846B6
:10581000BDE8F0812DE9F041044600251E46904682
:10582000C80301D5302700E02027880404D505E00F
:1058300041463846B0476D1C641EF9D52846BDE880
:10584000F0810A68531C0B60107070472DE9F05FFF
:1058500005460C4616469A46DDF8289006EB0A07E0
:105860006068B84204D3E068504501D3206830B97D
:105870001720296848612868016828468847A06978
:10588000B04204D82169A0690844B84225D294F8EE
:10589000220030B9472029684861286801682846F5
:1058A000884794F8210038B101222146284604F0A7
:1058B0008AF9002084F82100A069B04201D2A661D3
:1058C00006E02169781A002800DA0020A06100BFF4
:1058D00000222146284604F076F9E069B84235D224
:1058E000E069B0420BD2B9F1000F06D01720296849
:1058F00048612868016828468847B04601E0D4F826
:105900001C80B9F1000F00D0E76194F8200098B135
:10591000A0684FEAC01BA069A8EB0008A0693F1A65
:1059200007E0216851F828005946FAF7C8FC08F149
:105930000108B845F5D309E0B9F1000F06D11720E9
:10594000296848612868016828468847B9F1000F2E
:1059500002D0012084F82100A169711A206800EBAF
:105960008100BDE8F09F2DE9F05F05460C46164624
:105970009A46DDF8289006EB0A076068B84204D31F
:10598000E068504501D3206830B917202968486184
:105990002868016828468847A069B04204D8216970
:1059A000A0690844B84225D294F8220030B94720B3
:1059B00029684861286801682846884794F82100CA
:1059C00038B101222146284604F052F9002084F81B
:1059D0002100A069B04201D2A66106E02169781ACF
:1059E000002800DA0020A06100BF002221462846DE
:1059F00004F03EF9E069B84234D2E069B0420BD21B
:105A0000B9F1000F06D0172029684861286801689D
:105A100028468847B04601E0D4F81C80B9F1000F51
:105A200000D0E76194F8200090B1D4F808B0A069E4
:105A3000A8EB0008A0693F1A07E0216851F8280088
:105A40005946FAF73CFC08F10108B845F5D309E0DE
:105A5000B9F1000F06D1172029684861286801684C
:105A600028468847B9F1000F02D0012084F82100B0
:105A7000A169711A206800EB8100BDE8F09F000069
:105A80002DE9FF4F83B0074690461C467868029088
:105A90004FEAC8101F49B1FBF0FABAF1000F06DC5B
:105AA0004820396848613868016838468847A24507
:105AB00001DA554600E0254602980565A200384601
:105AC000049900F015F9814600261CE0A01BA842AD
:105AD00001D9284600E0A01B054605FB08F0C201DD
